:020000040800F2
:1000000000000220B1270008052600080726000886
:10001000092600080B2600080D2600080000000035
:100020000000000000000000000000000F26000893
:1000300011260008000000001326000815260008FD
:1000400001280008012800080128000801280008EC
:1000500001280008012800080128000801280008DC
:1000600001280008012800080128000801280008CC
:1000700001280008012800080128000801280008BC
:1000800001280008012800080128000801280008AC
:10009000012800080128000801280008012800089C
:1000A000012800080128000801280008012800088C
:1000B000012800080128000801280008012800087C
:1000C000012800080128000801280008012800086C
:1000D000012800080128000801280008012800085C
:1000E000012800080128000801280008012800084C
:1000F000012800080128000801280008012800083C
:10010000012800080128000801280008012800082B
:10011000012800080128000801280008012800081B
:10012000012800080128000801280008012800080B
:1001300001280008012800080128000801280008FB
:1001400001280008012800080128000801280008EB
:1001500001280008012800080128000801280008DB
:1001600001280008012800080128000801280008CB
:1001700001280008012800080128000800000000EC
:08018000012800080128000815
:1001C00010B5054C237833B9044B13B10448AFF391
:1001D00000800123237010BDB8090020000000003A
:1001E000E0AA000808B5034B1BB103490348AFF36D
:1001F000008008BD00000000BC090020E0AA000843
:1002000081F0004102E000BF83F0004330B54FEAC7
:1002100041044FEA430594EA050F08BF90EA020F34
:100220001FBF54EA000C55EA020C7FEA645C7FEAC7
:10023000655C00F0E2804FEA5454D4EB5555B8BFEA
:100240006D420CDD2C4480EA020281EA030382EA5B
:10025000000083EA010180EA020281EA0303362DED
:1002600088BF30BD11F0004F4FEA01314FF4801CC0
:100270004CEA113102D0404261EB410113F0004FD2
:100280004FEA03334CEA133302D0524263EB430389
:1002900094EA050F00F0A780A4F10104D5F1200E27
:1002A0000DDB02FA0EFC22FA05F2801841F1000182
:1002B00003FA0EF2801843FA05F359410EE0A5F156
:1002C00020050EF1200E012A03FA0EFC28BF4CF087
:1002D000020C43FA05F3C01851EBE37101F000453D
:1002E00007D54FF0000EDCF1000C7EEB00006EEB4A
:1002F0000101B1F5801F1BD3B1F5001F0CD34908D4
:100300005FEA30004FEA3C0C04F101044FEA44522A
:1003100012F5800F80F09A80BCF1004F08BF5FEAB1
:10032000500C50F1000041EB045141EA050130BD91
:100330005FEA4C0C404141EB0101013C28BFB1F5A3
:10034000801FE9D291F0000F04BF01460020B1FAEE
:1003500081F308BF2033A3F10B03B3F120020CDAC1
:100360000C3208DD02F1140CC2F10C0201FA0CF09F
:1003700021FA02F10CE002F11402D8BFC2F1200C04
:1003800001FA02F120FA0CFCDCBF41EA0C019040BA
:10039000E41AA2BF01EB0451294330BD6FEA040403
:1003A0001F3C1CDA0C340EDC04F11404C4F12002EE
:1003B00020FA04F001FA02F340EA030021FA04F300
:1003C00045EA030130BDC4F10C04C4F1200220FA57
:1003D00002F001FA04F340EA0300294630BD21FA95
:1003E00004F0294630BD94F0000F83F4801306BF5B
:1003F00081F480110134013D4EE77FEA645C18BF4F
:100400007FEA655C29D094EA050F08BF90EA020FE5
:1004100005D054EA000C04BF1946104630BD91EADD
:10042000030F1EBF0021002030BD5FEA545C05D1E0
:100430004000494128BF41F0004130BD14F580041F
:100440003CBF01F5801130BD01F0004545F0FE4193
:1004500041F470014FF0000030BD7FEA645C1ABFC8
:10046000194610467FEA655C1CBF0B46024650EAFF
:10047000013406BF52EA033591EA030F41F400212B
:1004800030BD00BF90F0000F04BF0021704730B5B1
:100490004FF4806404F132044FF000054FF0000186
:1004A00050E700BF90F0000F04BF0021704730B547
:1004B0004FF4806404F1320410F0004548BF40421C
:1004C0004FF000013EE700BF42004FEAE2014FEA71
:1004D00031014FEA02701FBF12F07F4393F07F4F4C
:1004E00081F06051704732F07F4208BF704793F04F
:1004F0007F4F04BF41F40021704730B54FF4607462
:1005000001F0004521F000411CE700BF50EA010264
:1005100008BF704730B54FF000050AE050EA01020D
:1005200008BF704730B511F0004502D5404261EB7D
:1005300041014FF4806404F132045FEA915C3FF4BE
:10054000D8AE4FF003025FEADC0C18BF03325FEA5B
:10055000DC0C18BF033202EBDC02C2F1200300FA0C
:1005600003FC20FA02F001FA03FE40EA0E0021FA31
:1005700002F11444BDE600BF4FEA4102B2F1E0438C
:1005800024BFB3F5001CDCF1FE5C0DD901F0004C7A
:100590004FEAC0024CEA5070B2F1004F40EB8300CA
:1005A00008BF20F00100704711F0804F21D113F1F6
:1005B0003872BCBF01F00040704741F480114FEA2F
:1005C0005252C2F11802C2F1200C10FA0CF320FAB8
:1005D00002F018BF40F001004FEAC1234FEAD323D5
:1005E00003FA0CFC40EA0C0023FA02F34FEA43033F
:1005F000CCE77FEA625307D150EA01331EBF4FF0C8
:10060000FE4040F44000704701F0004040F0FE40E2
:1006100040F40000704700BF80F0004002E000BFDF
:1006200081F0004142001FBF5FEA410392EA030FDD
:100630007FEA226C7FEA236C6AD04FEA1262D2EB27
:100640001363C1BFD218414048404140B8BF5B422C
:10065000192B88BF704710F0004F40F4000020F0C5
:100660007F4018BF404211F0004F41F4000121F0DB
:100670007F4118BF494292EA030F3FD0A2F1010225
:1006800041FA03FC10EB0C00C3F1200301FA03F163
:1006900000F0004302D5494260EB4000B0F5000F86
:1006A00013D3B0F1807F06D340084FEA310102F145
:1006B0000102FE2A51D2B1F1004F40EBC25008BFF7
:1006C00020F0010040EA03007047490040EB0000C1
:1006D000013A28BFB0F5000FEDD2B0FA80FCACF1C2
:1006E000080CB2EB0C0200FA0CF0AABF00EBC250EF
:1006F00052421843BCBFD0401843704792F0000FDD
:1007000081F4000106BF80F400000132013BB5E72F
:100710004FEA41037FEA226C18BF7FEA236C21D0A5
:1007200092EA030F04D092F0000F08BF084670470A
:1007300090EA010F1CBF0020704712F07F4F04D1D8
:10074000400028BF40F00040704712F100723CBFEB
:1007500000F50000704700F0004343F0FE4040F415
:10076000000070477FEA226216BF08467FEA2363D3
:100770000146420206BF5FEA412390EA010F40F4BE
:10078000800070474FF0000304E000BF10F000430A
:1007900048BF40425FEA000C08BF704743F09643F1
:1007A00001464FF000001CE050EA010208BF70470C
:1007B0004FF000030AE000BF50EA010208BF704793
:1007C00011F0004302D5404261EB41015FEA010CA8
:1007D00002BF84460146002043F0B64308BFA3F1A0
:1007E0008053A3F50003BCFA8CF2083AA3EBC25382
:1007F00010DB01FA02FC634400FA02FCC2F12002A1
:10080000BCF1004F20FA02F243EB020008BF20F0D7
:100810000100704702F1200201FA02FCC2F120023D
:1008200050EA4C0021FA02F243EB020008BF20EA32
:10083000DC7070474FF0FF0C1CEAD0521EBF1CEA60
:10084000D15392EA0C0F93EA0C0F6FD01A4480EA4E
:10085000010C400218BF5FEA41211ED04FF0006337
:1008600043EA501043EA5111A0FB01310CF0004063
:10087000B1F5000F3EBF490041EAD3715B0040EA89
:10088000010062F17F02FD2A1DD8B3F1004F40EB59
:10089000C25008BF20F00100704790F0000F0CF02C
:1008A000004C08BF49024CEA502040EA51207F3AF0
:1008B000C2BFD2F1FF0340EAC250704740F40000CB
:1008C0004FF00003013A5DDC12F1190FDCBF00F0BC
:1008D00000407047C2F10002410021FA02F1C2F16A
:1008E000200200FA02FC5FEA310040F1000053EA06
:1008F0004C0308BF20EADC70704792F0000F00F054
:10090000004C02BF400010F4000F013AF9D040EA59
:100910000C0093F0000F01F0004C02BF490011F4ED
:10092000000F013BF9D041EA0C018FE70CEAD153EB
:1009300092EA0C0F18BF93EA0C0F0AD030F0004C6B
:1009400018BF31F0004CD8D180EA010000F000401F
:10095000704790F0000F17BF90F0004F084691F0DD
:10096000000F91F0004F14D092EA0C0F01D1420217
:100970000FD193EA0C0F03D14B0218BF084608D1E0
:1009800080EA010000F0004040F0FE4040F400002A
:10099000704740F0FE4040F4400070474FF0FF0CBD
:1009A0001CEAD0521EBF1CEAD15392EA0C0F93EA04
:1009B0000C0F69D0A2EB030280EA010C49024FEA56
:1009C000402037D04FF0805343EA111143EA10130F
:1009D0000CF000408B4238BF5B0042F17D024FF4C7
:1009E000000C8B4224BF5B1A40EA0C00B3EB510FA2
:1009F00024BFA3EB510340EA5C00B3EB910F24BF8B
:100A0000A3EB910340EA9C00B3EBD10F24BFA3EB0F
:100A1000D10340EADC001B0118BF5FEA1C1CE0D1D7
:100A2000FD2A3FF650AF8B4240EBC25008BF20F08A
:100A3000010070470CF0004C4CEA50207F32C2BFDE
:100A4000D2F1FF0340EAC250704740F400004FF07B
:100A50000003013A37E792F0000F00F0004C02BFAC
:100A6000400010F4000F013AF9D040EA0C0093F076
:100A7000000F01F0004C02BF490011F4000F013BD0
:100A8000F9D041EA0C0195E70CEAD15392EA0C0F38
:100A900008D142027FF47DAF93EA0C0F7FF470AF70
:100AA000084676E793EA0C0F04D14B023FF44CAFB3
:100AB00008466EE730F0004C18BF31F0004CCAD148
:100AC00030F000427FF45CAF31F000437FF43CAF84
:100AD0005FE700BF4FEA4002B2F1FE4F0FD34FF085
:100AE0009E03B3EB12620DD94FEA002343F000439B
:100AF00010F0004F23FA02F018BF404270474FF049
:100B00000000704712F1610F01D1420205D110F0CF
:100B1000004008BF6FF0004070474FF00000704782
:100B200053B94AB9002908BF00281CBF4FF0FF3154
:100B30004FF0FF3000F074B9ADF1080C6DE904CE50
:100B400000F006F8DDF804E0DDE9022304B07047A8
:100B50002DE9F047089E0D4604468846002B4DD1EE
:100B60008A42944668D9B2FA82F252B101FA02F38B
:100B7000C2F1200120FA01F10CFA02FC41EA03085B
:100B800094404FEA1C45210CB8FBF5FE1FFA8CF788
:100B900005FB1E8341EA03430EFB07F199420BD983
:100BA0001CEB03030EF1FF3080F01E81994240F2EE
:100BB0001B81AEF1020E63445B1AA4B2B3FBF5F0E5
:100BC00005FB103344EA034400FB07F7A7420AD9A8
:100BD0001CEB040400F1FF3380F00881A74240F2CF
:100BE000058164440238E41B40EA0E4000211EB136
:100BF000D4400023C6E90043BDE8F0878B4208D902
:100C0000002E00F0EE800021C6E900050846BDE890
:100C1000F087B3FA83F100294AD1AB4202D3824272
:100C200000F2F980841A65EB030301209846002E38
:100C3000E2D0C6E90048DFE702B9FFDEB2FA82F28D
:100C4000002A40F09180A1EB0C054FEA1C471FFAE7
:100C50008CFE0121B5FBF7F307FB1350250C45EA89
:100C600000450EFB03F0A84208D91CEB050503F173
:100C7000FF3802D2A84200F2CB8043462D1AA4B21C
:100C8000B5FBF7F007FB105544EA05440EFB00FEE8
:100C9000A64508D91CEB040400F1FF3502D2A64595
:100CA00000F2BB802846A4EB0E0440EA03409EE716
:100CB000C1F120078B4022FA07FC4CEA030C20FA12
:100CC00007F405FA01F31C43FD404FEA1C4900FA02
:100CD00001F3B5FBF9F8200C1FFA8CFE09FB18553F
:100CE00040EA054508FB0EF0A84202FA01F20BD9D2
:100CF0001CEB050508F1FF3A80F08880A84240F21D
:100D00008580A8F1020865442D1AA4B2B5FBF9F05C
:100D100009FB105544EA054500FB0EFEAE4508D917
:100D20001CEB050500F1FF346CD2AE456AD90238E0
:100D3000654440EA0840A0FB0294A5EB0E05A542DD
:100D4000C846A64656D353D05EB1B3EB080265EB56
:100D50000E0505FA07F722FA01F3CD401F43C6E955
:100D600000750021BDE8F087C2F1200320FA03F1ED
:100D70000CFA02FC25FA03F395400D434FEA1C4799
:100D80001FFA8CFEB3FBF7F107FB11302B0C43EA83
:100D9000004301FB0EF0984204FA02F408D91CEB60
:100DA000030301F1FF382FD298422DD90239634451
:100DB0001B1AADB2B3FBF7F007FB103345EA03454E
:100DC00000FB0EF3AB4208D91CEB050500F1FF3820
:100DD00016D2AB4214D902386544ED1A40EA0141FB
:100DE00038E73146304607E78646E5E61846FAE634
:100DF0004B45A9D2B9EB020864EB0C0E0138A3E70E
:100E00004046EAE7204694E74146D1E7D0467BE7F3
:100E1000023B654432E7084609E76444023842E78A
:100E2000704700BF0000000000000000000000004C
:100E300000000000000000000000000000000000B2
:100E400090F800F06DE9024520F007016FF0000C0A
:100E500010F0070491F820F040F049804FF00004B2
:100E60006FF00700D1E9002391F840F000F108008D
:100E700082FA4CF2A4FA8CF283FA4CF3A2FA8CF3C5
:100E80004BBBD1E9022382FA4CF200F10800A4FA2C
:100E90008CF283FA4CF3A2FA8CF3E3B9D1E9042380
:100EA00082FA4CF200F10800A4FA8CF283FA4CF3B7
:100EB000A2FA8CF37BB9D1E9062301F1200182FA71
:100EC0004CF200F10800A4FA8CF283FA4CF3A2FA77
:100ED0008CF3002BC6D0002A04BF04301A4612BA85
:100EE000B2FA82F2FDE8024500EBD2007047D1E988
:100EF000002304F00305C4F100004FEAC50514F017
:100F0000040F91F840F00CFA05F562EA05021CBFE7
:100F100063EA050362464FF00004A9E70000000001
:100F200001F0FF01102A2BDB10F0070F08D010F89A
:100F3000013B013A8B422DD010F0070F42B3F6D19E
:100F4000F0B441EA012141EA014122F007047FF0B7
:100F500000070023F0E80256083C85EA010586EA0E
:100F6000010685FA47F5A3FA87F586FA47F6A5FA4A
:100F700087F68EB9EED1F0BC01F0FF0102F0070256
:100F800032B110F8013B013A83EA010313B1F8D101
:100F90000020704701387047002D06BF35460338E2
:100FA000073815F0010F07D1013015F4807F02BF1B
:100FB000013015F4C03F0130F0BC0138704700BF6C
:100FC000844641EA000313F003036DD1403A41D354
:100FD00051F8043B40F8043B51F8043B40F8043B13
:100FE00051F8043B40F8043B51F8043B40F8043B03
:100FF00051F8043B40F8043B51F8043B40F8043BF3
:1010000051F8043B40F8043B51F8043B40F8043BE2
:1010100051F8043B40F8043B51F8043B40F8043BD2
:1010200051F8043B40F8043B51F8043B40F8043BC2
:1010300051F8043B40F8043B51F8043B40F8043BB2
:1010400051F8043B40F8043B51F8043B40F8043BA2
:10105000403ABDD2303211D351F8043B40F8043B42
:1010600051F8043B40F8043B51F8043B40F8043B82
:1010700051F8043B40F8043B103AEDD20C3205D352
:1010800051F8043B40F8043B043AF9D2043208D04A
:10109000D2071CBF11F8013B00F8013B01D30B88BC
:1010A00003806046704700BF082A13D38B078DD09A
:1010B00010F003038AD0C3F10403D21ADB071CBF6C
:1010C00011F8013B00F8013B80D331F8023B20F8D6
:1010D000023B7BE7043AD9D3013A11F8013B00F80F
:1010E000013BF9D20B7803704B7843708B78837097
:1010F0006046704770B54FF0FF0C4CF4E06C1CEA92
:1011000011541DBF1CEA135594EA0C0F95EA0C0FFD
:1011100000F0DEF82C4481EA030621EA4C5123EA70
:101120004C5350EA013518BF52EA033541F480119F
:1011300043F4801338D0A0FB02CE4FF00005E1FB52
:1011400002E506F00042E0FB03E54FF00006E1FB9C
:1011500003569CF0000F18BF4EF0010EA4F1FF04DF
:10116000B6F5007F64F5407404D25FEA4E0E6D411F
:1011700046EB060642EAC62141EA55514FEAC52030
:1011800040EA5E504FEACE2EB4F1FD0C88BFBCF5AC
:10119000E06F1ED8BEF1004F08BF5FEA500E50F15D
:1011A000000041EB045170BD06F0004646EA010123
:1011B00040EA020081EA0301B4EB5C04C2BFD4EB55
:1011C0000C0541EA045170BD41F480114FF0000E4E
:1011D000013C00F3AB8014F1360FDEBF002001F0BC
:1011E000004170BDC4F10004203C35DA0C341BDC36
:1011F00004F11404C4F1200500FA05F320FA04F008
:1012000001FA05F240EA020001F0004221F000413B
:1012100010EBD37021FA04F642EB06015EEA430EAE
:1012200008BF20EAD37070BDC4F10C04C4F12005DE
:1012300000FA04F320FA05F001FA04F240EA020091
:1012400001F0004110EBD37041F100015EEA430E62
:1012500008BF20EAD37070BDC4F1200500FA05F282
:101260004EEA020E20FA04F301FA05F243EA020301
:1012700021FA04F001F0004121FA04F220EA020010
:1012800000EBD3705EEA430E08BF20EAD37070BD56
:1012900094F0000F0FD101F00046400041EB010136
:1012A00011F4801F08BF013CF7D041EA060195F018
:1012B000000F18BF704703F00046520043EB0303D2
:1012C00013F4801F08BF013DF7D043EA06037047BF
:1012D00094EA0C0F0CEA135518BF95EA0C0F0CD0CA
:1012E00050EA410618BF52EA4306D1D181EA030110
:1012F00001F000414FF0000070BD50EA410606BF0A
:101300001046194652EA430619D094EA0C0F02D14E
:1013100050EA013613D195EA0C0F05D152EA033693
:101320001CBF104619460AD181EA030101F00041B1
:1013300041F0FE4141F470014FF0000070BD41F0FA
:10134000FE4141F4780170BD70B54FF0FF0C4CF4D4
:10135000E06C1CEA11541DBF1CEA135594EA0C0FF3
:1013600095EA0C0F00F0A7F8A4EB050481EA030E40
:1013700052EA03354FEA013100F088804FEA033327
:101380004FF0805545EA131343EA12634FEA0222F5
:1013900045EA111545EA10654FEA00260EF00041B6
:1013A0009D4208BF964244F1FD0404F5407402D208
:1013B0005B084FEA3202B61A65EB03055B084FEA99
:1013C00032024FF480104FF4002CB6EB020E75EB96
:1013D000030E22BFB61A754640EA0C005B084FEABE
:1013E0003202B6EB020E75EB030E22BFB61A75463B
:1013F00040EA5C005B084FEA3202B6EB020E75EB86
:10140000030E22BFB61A754640EA9C005B084FEAFD
:101410003202B6EB020E75EB030E22BFB61A75460A
:1014200040EADC0055EA060E18D04FEA051545EAF9
:1014300016754FEA06164FEAC30343EA52734FEAA2
:10144000C2025FEA1C1CC0D111F4801F0BD141EA1B
:1014500000014FF000004FF0004CB6E711F4801F80
:1014600004BF01430020B4F1FD0C88BFBCF5E06F60
:101470003FF6AFAEB5EB030C04BFB6EB020C5FEA70
:10148000500C50F1000041EB045170BD0EF0004EC5
:101490004EEA113114EB5C04C2BFD4EB0C0541EAF7
:1014A000045170BD41F480114FF0000E013C90E6F4
:1014B00045EA060E8DE60CEA135594EA0C0F08BFB8
:1014C00095EA0C0F3FF43BAF94EA0C0F0AD150EAB7
:1014D00001347FF434AF95EA0C0F7FF425AF10464A
:1014E00019462CE795EA0C0F06D152EA03353FF472
:1014F000FDAE1046194622E750EA410618BF52EAEF
:1015000043067FF4C5AE50EA41047FF40DAF52EAC2
:1015100043057FF4EBAE12E74FF0FF3C06E000BF5F
:101520004FF0010C02E000BF4FF0010C4DF804CD6C
:101530004FEA410C7FEA6C5C4FEA430C18BF7FEA2C
:101540006C5C1BD001B050EA410C0CBF52EA430C5A
:1015500091EA030F02BF90EA020F0020704710F1DA
:10156000000F91EA030F58BF994208BF90422CBF69
:10157000D8176FEAE37040F0010070474FEA410C62
:101580007FEA6C5C02D150EA013C07D14FEA430C80
:101590007FEA6C5CD6D152EA033CD3D05DF8040BF1
:1015A000704700BF8446104662468C461946634623
:1015B00000E000BF01B5FFF7B7FF002848BF10F1FA
:1015C000000F01BD4DF808EDFFF7F4FF0CBF01203F
:1015D00000205DF808FB00BF4DF808EDFFF7EAFFBB
:1015E00034BF012000205DF808FB00BF4DF808ED76
:1015F000FFF7E0FF94BF012000205DF808FB00BF6B
:101600004DF808EDFFF7CEFF94BF012000205DF8F4
:1016100008FB00BF4DF808EDFFF7C4FF34BF012001
:1016200000205DF808FB00BF4FEA410C7FEA6C5CCC
:1016300002D150EA013C0AD14FEA430C7FEA6C5CCC
:1016400002D152EA033C02D14FF0000070474FF044
:10165000010070474FEA410212F5001215D211D570
:101660006FF47873B3EB625212D94FEAC12343F09F
:10167000004343EA505311F0004F23FA02F018BF21
:10168000404270474FF00000704750EA013005D1EA
:1016900011F0004008BF6FF0004070474FF00000AD
:1016A000704700BF30B587B00D468DF81720440055
:1016B0004FF47A73012221460D4802F061F810B10F
:1016C000012007B030BD4FF47A73029301230193D8
:1016D0000DF1170200922A462146054801F02CFE22
:1016E0000028EED0024801F00DFE0120E9E700BF1E
:1016F000000A002000B587B00A464FF47A730293BF
:10170000012301930DF11701009100FA03F1044840
:1017100001F0C4FE9DF8170007B05DF804FB00BFA0
:10172000000A002038B50C4641EA0010C5B2032972
:1017300008D8013C062C39D8DFE804F0101A1F2421
:10174000292E330009217720FFF7D4FF40F004024F
:10175000D2B209217720FFF7A5FFEAE7164B4FF435
:10176000C012DA602A4606217720FFF79BFF38BDBA
:10177000114B4FF46012DA60F4E70F4B4FF4F002B4
:10178000DA60EFE70C4B4FF47832DA60EAE70A4BA5
:101790004FF4FC22DA60E5E7074B4FF47E22DA6073
:1017A000E0E7054B4FF4FF12DA60DBE7024B4FF442
:1017B0000022DA60D6E700BFD409002038B50D4614
:1017C000000140EAC21044B20C43E4B2032908D835
:1017D000013D062D39D8DFE805F0101A1F24292E07
:1017E000330009217720FFF785FF40F00802D2B2CD
:1017F00009217720FFF756FFEAE7164B4FF4C01296
:101800001A61224607217720FFF74CFF38BD114BA4
:101810004FF460121A61F4E70E4B4FF4F0021A61B4
:10182000EFE70C4B4FF478321A61EAE7094B4FF4BB
:10183000FC221A61E5E7074B4FF47E221A61E0E7CC
:10184000044B4FF4FF121A61DBE7024B4FF4002206
:101850001A61D6E7D409002008B508217720FFF7E0
:1018600049FF08BD08B5024608217720FFF71AFF97
:1018700008BD08B50D217720FFF73CFF08BD00002B
:1018800070B510217720FFF735FF0446112177202E
:10189000FFF730FFA4B22401A4B244EA101003B24F
:1018A000524A138010F4006F03D06FEA03536FEABB
:1018B00013534E4D2B8011217720FFF71BFF044659
:1018C00012217720FFF716FFA4B2240204F47064FB
:1018D000204303B26B8010F4006F03D06FEA035310
:1018E0006FEA1353414E738013217720FFF702FFF5
:1018F000054614217720FFF7FDFE044615217720C9
:10190000FFF7F8FE240144EA053444EA2010706031
:1019100010F4002F03D06FEA00306FEA1030334E1E
:10192000706015217720FFF7E5FE05461621772028
:10193000FFF7E0FE044617217720FFF7DBFE2402C5
:1019400044EA054420430346B06010F4002F03D05E
:101950006FEA00336FEA1333244DAB601821772010
:10196000FFF7C8FE044619217720FFF7C3FEA4B293
:101970002402A4B20443AC811A217720FFF7BAFEF7
:1019800004461B217720FFF7B5FEA4B22402A4B2BF
:101990000443EC811C217720FFF7ACFE04461D2197
:1019A0007720FFF7A7FEA4B22402A4B204432C823E
:1019B0001E217720FFF79EFE04461F217720FFF7A8
:1019C00099FEA4B22402A4B204436C8220217720A1
:1019D000FFF790FE044621217720FFF78BFEA4B28B
:1019E0002402A4B20443AC8270BD00BFE809002009
:1019F00010B5FFF731FF10F0800FFAD0FFF740FF6E
:101A0000FFF72AFF10F0400FFAD0FFF732FF0E4C1D
:101A10002070102200F0F0010C4803F003F8237846
:101A200003F0F003102B01D0012010BD0521072089
:101A3000FFF778FE012203210520FFF7BFFE0720F4
:101A4000FFF710FF0020F0E7D4090020FCAA0008EF
:101A500030B583B0144B1B88ADF8043000238DF8EB
:101A6000063003217720FFF745FE05468DF8040078
:101A700004217720FFF73EFE04468DF8050005217E
:101A80007720FFF737FE8DF80600240244EA05446C
:101A90002043064B986010F4000F01D040F07F40C7
:101AA000024B986003B030BDF8AA0008D4090020AA
:101AB00030B583B000217720FFF71CFE05468DF876
:101AC000040001217720FFF715FE04468DF805007C
:101AD00002217720FFF70EFE8DF80600240244EA6B
:101AE00005442043054B586010F4000F01D040F02E
:101AF0007F40024B586003B030BD00BFD4090020C6
:101B0000F8B5154DA868FEF741FE04462869FEF7B2
:101B10003DFE01462046FEF741FF06460F4FB7F94E
:101B20000000FEF7BFFC00220D4BFFF7E3FA04466E
:101B30000D46B7F90200FEF729FE3146FEF77AFEA0
:101B4000FEF7C2FC02460B4620462946FEF75EFB26
:101B5000FEF712FDF8BD00BFD4090020E8090020FF
:101B60000000E03F2DE9F047364CA068FEF70EFE7E
:101B700005462069FEF70AFE01462846FEF70EFFDD
:101B800006466068FEF702FE0546E068FEF7FEFDC9
:101B900001462846FEF702FF05462B4CA068FEF7DB
:101BA000F5FD0746B4F91090B4F91400FEF7EEFD08
:101BB0002946FEF73FFE80464846FEF7E7FD4146D0
:101BC000FEF730FD2946FEF735FE01463846FEF7A2
:101BD00029FD804629463046FEF72CFE0746B4F91B
:101BE0000EA0B4F91200FEF7D1FD2946FEF722FE41
:101BF00081465046FEF7CAFD4946FEF713FD0146F1
:101C00003846FEF717FE0746D4F8049041462846AA
:101C1000FEF710FE05464846FEF7B8FD2946FEF7DA
:101C200001FD0546B4F90C00FEF7B0FD3146FEF7A4
:101C300001FE01462846FEF7F5FC3946FEF7F2FCA8
:101C4000BDE8F087D4090020E809002008B5FFF7B7
:101C5000FFFEFFF755FF08BD08B5FFF729FFFFF7A7
:101C600081FF08BD30B58BB000240594069407941D
:101C70000894099401941C4B1A6B42F080021A6379
:101C80001A6B02F080020192019A02941A6B42F0E0
:101C900004021A631A6B02F004020292029A03947D
:101CA0001A6B42F002021A631A6B02F002020392EC
:101CB000039A04941A6B42F001021A631B6B03F03F
:101CC00001030493049B094D22460121284600F09C
:101CD000E9FF0123059306930794089405A9284674
:101CE00000F054FE0BB030BD00380240000402404A
:101CF00008B50B480B4B03600B4B4360002383601C
:101D0000C3604FF48042026143618361C361036237
:101D100001F01AFA00B908BD00F05CF8FBE700BF5B
:101D2000000A002000540040A086010030B589B0B0
:101D30000023039304930593069307930268144BBF
:101D40009A4201D009B030BD00250195114C236B9A
:101D500043F002032363236B03F002030193019B0F
:101D6000C0230393122304930323069304230793AE
:101D700003A9094800F00AFE0295236C43F40013FE
:101D80002364236C03F400130293029BDAE700BF81
:101D900000540040003802400004024002680A4B30
:101DA0009A4200D0704710B5084A136C23F4001310
:101DB0001364074C4021204600F0DAFE80212046C3
:101DC00000F0D6FE10BD00BF0054004000380240B5
:101DD0000004024072B6FEE700B595B03022002143
:101DE00008A802F0CDFD0023039304930593069306
:101DF00007930193214A116C41F080511164126CD8
:101E000002F080520192019A02931D4B1A6842F42B
:101E100080421A601B6803F480430293029B0123F3
:101E200008934FF48033099302230E934FF48002FA
:101E30000F92082210924FF4A87211921293042369
:101E4000139308A801F066FD98B90F2303930223AA
:101E50000493002305934FF4A05306934FF480534B
:101E60000793052103A801F0BBFF20B915B05DF869
:101E700004FBFFF7AFFFFFF7ADFF00BF00380240E4
:101E80000070004070B500F0E3FCFFF7A5FFFFF71E
:101E9000E9FE00F0F9FB00F001FB00F0DFFAFFF7CC
:101EA00027FF264800F06AFA254802F01DFE00F0E0
:101EB0000DFA244802F0B6FD00F054FC0146224819
:101EC00002F0B0FDFFF794FD002833D01F4802F068
:101ED0000BFEFFF7BBFE1E4E3060FFF7BDFE014656
:101EE0001C4D28601C48FEF79BFB1C49FEF7A2FC1A
:101EF00020F00040FEF7EEFD194C20603068FEF740
:101F0000E3FA02460B46174802F08CFD2868FEF7FC
:101F1000DBFA02460B46144802F084FD21681348A0
:101F200002F080FD124802F0DFFD4FF47A7000F0FD
:101F3000BBFCCEE70F4802F0D7FDCAE71C0B002020
:101F400010AB000820AB00082CAB00083CAB00082D
:101F50005C0A0020580A00200038C747E17A9D42F9
:101F6000540A00206CAB000888AB0008ACAB00083A
:101F70004CAB000854AB000810B582B060F07F0095
:101F80008DF804008DF805100B4C0022012120462D
:101F900000F088FE012000F087FC0A23022201A93C
:101FA000064802F0F0F801221146204600F07AFEC1
:101FB000002002B010BD00BF00040240C00A002093
:101FC00070B584B08DF80F0000228DF80E20114CF2
:101FD0000121204600F066FE0F4D4FF47A76009600
:101FE00001230DF10E020DF10F01284602F0A7F9B1
:101FF000009601230DF10E020DF10F01284602F0AB
:102000009EF901221146204600F04CFE9DF80E007C
:1020100004B070BD00040240C00A002008B50021D1
:102020007F20FFF7A9FFAD216120FFF7A5FF032166
:102030007F20FFF7A1FF00214020FFF79DFF052132
:102040007F20FFF799FFB3214120FFF795FFF12192
:102050004320FFF791FF14214520FFF78DFF322128
:102060005B20FFF789FF34215F20FFF785FF082100
:102070007B20FFF781FF06217F20FFF77DFF1B21DB
:102080004420FFF779FFBF214020FFF775FF3F2174
:102090004E20FFF771FF08217F20FFF76DFF202101
:1020A0006520FFF769FF18216A20FFF765FF092106
:1020B0007F20FFF761FFAF214F20FFF75DFF402139
:1020C0005F20FFF759FF80214820FFF755FF80214F
:1020D0004920FFF751FF77215720FFF74DFF782167
:1020E0006020FFF749FF78216120FFF745FF0821B5
:1020F0006220FFF741FF50216320FFF73DFF0A21D7
:102100007F20FFF739FF60214520FFF735FF0021D1
:102110007F20FFF731FF11214D20FFF72DFF802198
:102120005520FFF729FF1F217420FFF725FF1F21EE
:102130007520FFF721FF78214A20FFF71DFF782146
:102140004B20FFF719FF08214420FFF715FF50210E
:102150004520FFF711FFFF216420FFF70DFF1F212E
:102160006520FFF709FF14217F20FFF705FF60219D
:102170006520FFF701FF08216620FFF7FDFE7821AB
:102180006320FFF7F9FE15217F20FFF7F5FE5821A8
:102190004820FFF7F1FE07217F20FFF7EDFE0D211C
:1021A0004120FFF7E9FE14214320FFF7E5FE0E2151
:1021B0004B20FFF7E1FE0F214520FFF7DDFE422116
:1021C0004420FFF7D9FE80214C20FFF7D5FE1021D7
:1021D0007F20FFF7D1FE02215B20FFF7CDFE072114
:1021E0007F20FFF7C9FE41214020FFF7C5FE0021F7
:1021F0007020FFF7C1FE0A2000F056FB4421322078
:10220000FFF7BAFE07217F20FFF7B6FE4021084600
:10221000FFF7B2FE06217F20FFF7AEFEF02162201D
:10222000FFF7AAFE00216320FFF7A6FE0D217F2005
:10223000FFF7A2FEC0214820FFF79EFED5216F20A8
:10224000FFF79AFE00217F20FFF796FEA0215B207A
:10225000FFF792FEA8214E20FFF78EFE50215A2054
:10226000FFF78AFE80214020FFF786FE08BD0000B0
:1022700038B50020FFF7A4FE05460020FFF7A0FEBA
:10228000044602462946034802F0CCFB44EA0520F6
:1022900080B238BD08AB000870B50B4E002201219A
:1022A000304600F0FFFC5F20FFF78AFE05465F2006
:1022B000FFF786FE044601221146304600F0F2FC8C
:1022C00044EA052080B270BD0004024010B5264CDF
:1022D00000220121204600F0E5FC012211462046A3
:1022E00000F0E0FC0A2000F0DFFA00220121204685
:1022F00000F0D8FC0A2000F0D7FA5A213A20FFF764
:102300003BFE5A213A20FFF737FE0A2000F0CCFAB4
:10231000FFF7AEFF0146154B1880154C204602F022
:1023200081FB1E2000F0C0FAFFF7B6FF0146114BFB
:102330001880204602F076FB0220FFF741FE0320C2
:10234000FFF73EFE0420FFF73BFE0520FFF738FEB7
:102350000620FFF735FE0A2000F0A6FAFFF75EFE22
:10236000054802F0C1FB10BD00040240600A0020D5
:10237000C8AB0008620A0020D8AB000808B5054BBE
:102380001860054B1868002302221946806802F085
:10239000B3FB08BD640A00200C000020022801D80D
:1023A0000120704708B502F0C1FA0923036000203C
:1023B00008BD000010B5013801280AD814464FF0B6
:1023C000FF3392B20748006802F0D1F940B92046C5
:1023D00010BD02F0ABFA092303604FF0FF30F7E7BE
:1023E0000520F5E7640A0020022801D80020704784
:1023F00008B502F09BFA092303604FF0FF3008BDD7
:1024000008B502F093FA092303604FF0FF3008BDCE
:1024100008B548B94FF0FF3301220848006802F0C0
:1024200012FA40B9012008BD02F080FA09230360C6
:102430004FF0FF30F7E70520F5E700BF640A002002
:1024400008B5022804D84FF400534B60002008BDA3
:1024500002F06CFA09230360F8E7000008B50D48A4
:102460000D4B03604FF48273436000238360C360AD
:10247000036143614FF400728261C361036243628E
:1024800083620A23C36201F01FFE00B908BDFFF793
:10249000A1FCFBE7680A00200030014008B50E48A7
:1024A0000E4B03604FF48273436000238360C3606C
:1024B000036143614FF4007282611822C2610362BA
:1024C000436283620A23C36201F0FEFD00B908BDC6
:1024D000FFF780FCFBE700BFC00A00200038004087
:1024E000F0B58BB0002305930693079308930993E7
:1024F0000368314A934204D0304A934224D00BB04F
:10250000F0BD002100912E4B5A6C42F480525A6467
:102510005A6C02F480520092009A01911A6B42F0B8
:1025200002021A631B6B03F002030193019B382321
:10253000059302230693032308930523099305A912
:10254000204800F023FADAE7002402941C4B1A6CAE
:1025500042F480421A641A6C02F480420292029A97
:1025600003941A6B42F004021A631A6B02F004021D
:102570000392039A04941A6B42F002021A631B6BD3
:1025800003F002030493049B0C2305930227069790
:10259000032608960525099505A90B4800F0F6F9CC
:1025A0004FF480630593069707940896099505A94B
:1025B000044800F0EBF9A2E7003001400038004089
:1025C00000380240000402400008024082B00021AE
:1025D00000910B4B5A6C42F480425A645A6C02F4DC
:1025E00080420092009A01911A6C42F080521A6463
:1025F0001B6C03F080530193019B02B0704700BF36
:1026000000380240FEE7FEE7FEE7FEE7FEE7704720
:102610007047704708B500F035F908BD01207047D4
:1026200008B502F083F9162303604FF0FF3008BDB0
:1026300008B54FF0FF31FFF7F3FFFEE710B5034693
:102640000C4A0D490D48006840B10C48006803442D
:10265000521A934206D8094A136010BD0748084C25
:102660000460F2E702F062F90C2303604FF0FF30E0
:10267000F3E700BF0000022000040000180B002058
:10268000B00B00207047000008B50A480A4B0360F1
:102690004FF4E133436000238360C36003610C2285
:1026A00042618361C36102F033F800B908BDFFF7EE
:1026B00091FBFBE71C0B00200010014000B589B026
:1026C000002303930493059306930793026803F191
:1026D000804303F588339A4202D009B05DF804FBC9
:1026E0000021019103F594335A6C42F010025A64B0
:1026F0005A6C02F010020192019A02911A6B42F098
:1027000001021A631B6B03F001030293029B4FF457
:10271000C0630393022304930323069307230793C1
:1027200003A9024800F032F9D7E700BF00000240D9
:1027300000B585B08DF80F0000238DF80E304FF4F2
:102740007A73009301230DF10E020DF10F0104487D
:1027500001F0F5FD9DF80E0005B05DF804FB00BF2B
:10276000680A002070B5114E00220121304600F0A9
:1027700099FA9020FFF7DCFF0020FFF7D9FF002037
:10278000FFF7D6FF0020FFF7D3FF0020FFF7D0FFB1
:1027900005460020FFF7CCFF0446012211463046D3
:1027A00000F080FA44EA052080B270BD00040240C7
:1027B000DFF834D00D480E490E4A002302E0D45809
:1027C000C4500433C4188C42F9D30B4A0B4C002379
:1027D00001E013600432A242FBD3FFF753FF02F083
:1027E000ABF8FFF74FFB704700000220000000200D
:1027F000B80900201CB00008B8090020AC0B00206C
:10280000FEE7000010B504460E4B18784FF47A73BB
:10281000B3FBF0F30C4A1068B0FBF3F000F0A2F841
:1028200068B90F2C01D901200AE0002221464FF09F
:10283000FF3000F05FF8054B1C60002000E0012035
:1028400010BD00BF04000020000000200800002090
:1028500008B50B4B1A6842F400721A601A6842F409
:1028600080621A601A6842F480721A60032000F0D5
:102870002FF80F20FFF7C6FFFFF7A8FE002008BDC6
:10288000003C0240034A1168034B1B780B44136061
:10289000704700BF600B002004000020014B186847
:1028A000704700BF600B002038B50446FFF7F6FF05
:1028B0000546B4F1FF3F02D0044B1B781C44FFF7E0
:1028C000EDFF401BA042FAD338BD00BF040000203A
:1028D000074AD36823F4E0631B041B0C000200F4D6
:1028E000E060034343F0BF6343F40033D3607047B9
:1028F00000ED00E000B5194BDB68C3F30223C3F120
:10290000070CBCF1040F28BF4FF0040C03F1040EB8
:10291000BEF1060F18D9033B4FF0FF3E0EFA0CFC38
:1029200021EA0C0199400EFA03F322EA030319434A
:1029300000280BDB0901C9B200F1604000F56140DD
:1029400080F800135DF804FB0023E5E700F00F00BA
:102950000901C9B2024B1954F4E700BF00ED00E0D1
:1029600014ED00E00138B0F1807F0BD24FF0E0238E
:102970005861054AF02182F823100020986107224F
:102980001A6170470120704700ED00E000230F2B13
:1029900000F2E48070B582B060E085685E000324D8
:1029A000B44025EA0405CC68B4402C4384604568F3
:1029B00025EA02054C68C4F300129A402A4342609B
:1029C0005AE0DC08083450F8246003F00702950050
:1029D0000F22AA4026EA020E0A69AA4042EA0E0223
:1029E00040F824205CE0072200E0002202FA0EF208
:1029F0002A4302345A4D45F824205A4A94686FEA13
:102A00000C0224EA0C054E6816F4801F01D04CEA33
:102A10000405544CA560E46802EA04054E6816F407
:102A2000001F01D04CEA04054E4CE560646802EAE0
:102A300004054E6816F4003F01D04CEA0405494CE9
:102A40006560246822404D6815F4803F01D04CEA4F
:102A50000402444C226001330F2B7DD801229A409E
:102A60000C6804EA020C32EA0404F4D14C6804F065
:102A70000304013C012C90D94A6802F00302032AA6
:102A800009D0C4685D000322AA4024EA02048A68CF
:102A9000AA402243C2604A6802F00302022A90D090
:102AA00004684FEA430E032202FA0EF224EA0204FB
:102AB0004A6802F0030202FA0EF2224302604A68F8
:102AC00012F4403FC7D000220192274A546C44F4CC
:102AD00080445464526C02F480420192019A9C0832
:102AE000A51C1F4A52F8255003F003024FEA820E3C
:102AF0000F2202FA0EF225EA02051C4A90423FF428
:102B000074AF02F5806290421AD002F58062904262
:102B100018D002F58062904216D002F58062904291
:102B200014D002F58062904212D002F58062904289
:102B300010D002F5806290423FF455AF082255E76D
:102B4000012253E7022251E703224FE704224DE717
:102B500005224BE7062249E702B070BD704700BF6F
:102B600000380140003C01400038024000000240B3
:102B700000230F2B00F28F80F0B52DE0072500E039
:102B8000002505FA0CFCA44569D004685D004FF0EF
:102B9000030C0CFA05FC24EA0C0404604FEAD30E83
:102BA0000EF1080E50F82E4003F00705AE000F2579
:102BB000B54024EA050440F82E40C46824EA0C0419
:102BC000C460446824EA02024260826822EA0C027D
:102BD000826001330F2B5DD801229A4002EA010680
:102BE00032EA0104F5D14FEA930E0EF102052A4CA8
:102BF00054F8254003F0030C4FEA8C0C0F2505FA1E
:102C00000CF73C40254DA842BAD005F58065A84296
:102C100019D005F58065A84217D005F58065A84252
:102C200015D005F58065A84213D005F58065A8424A
:102C300011D005F58065A8420FD005F58065A84242
:102C40009CD008259DE701259BE7022599E70325F0
:102C500097E7042595E7052593E7062591E7104CAE
:102C6000256825EA06052560656825EA060565608C
:102C7000E56825EA0605E560A56825EA0606A6607A
:102C8000054E0EF1020456F8245025EA070546F8D1
:102C900024507AE7F0BD7047003801400000024040
:102CA000003C01400AB181617047090481617047AD
:102CB00003685A6912F4806F01D1002070476FF4E5
:102CC00080625A6100230363202280F83D2080F84F
:102CD0003E30026C42F00402026480F83C30012075
:102CE00070472DE9F04107460D4690461E4624E008
:102CF000FFF7D4FD069BC01AB04200D8EEB90023FE
:102D00003B63202287F83D2087F83E303A6C42F042
:102D100020023A6487F83C3001201EE03B689C6941
:102D200025EA040C1FFA8CFCBCFA8CFC4FEA5C1CF4
:102D3000E04511D1B6F1FF3FDAD1C5F30743012BCE
:102D4000ECD13B685B6925EA030C1FFA8CFCBCFAEA
:102D50008CFC4FEA5C1CEBE70020BDE8F0812DE91C
:102D6000F04105460E46174698463DE01A6842F483
:102D700000721A602B686FF480625A6100232B6323
:102D8000202285F83D2085F83E302A6C42F004026E
:102D90002A6485F83C30012034E0FFF77FFDA0EB8A
:102DA0000800B84200D8FFB900232B63202285F821
:102DB0003D2085F83E302A6C42F020022A6485F8D6
:102DC0003C3001201EE02B689C6926EA0404A4B272
:102DD000003C18BF0124A4B12B685A6912F4806F1B
:102DE000C4D1B7F1FF3FD8D1C6F30743012BEAD1D5
:102DF0002B685C6926EA0404A4B2003C18BF0124D5
:102E0000E9E70020BDE8F08170B504460D4616469E
:102E100023685B6913F0800F1CD12046FFF748FF41
:102E2000D0B9B5F1FF3FF3D0FFF738FD801BA842C2
:102E300001D8002DECD100232363202284F83D200B
:102E400084F83E30226C42F02002226484F83C3048
:102E5000012000E0002070BD0120FCE72DE9F043D7
:102E600085B004460D4691461F46DDF830800D9E24
:102E70000368196841F48071196000964346002286
:102E80004FF00111FFF72DFF60B9236805F0FE0533
:102E90001D613346424626492046FFF760FF68B170
:102EA000012008E023681B6813F4807F02D04FF4F0
:102EB00000732364032005B0BDE8F083002303936F
:102EC00023685A6903929B690393039B32464146E8
:102ED0002046FFF799FF30B9012F0FD123685FFA21
:102EE00089F61E61E7E7236C042B01D00120E2E79D
:102EF0002268136843F400731360F7E723684FEA0E
:102F000019221A61324641462046FFF77DFF20B95B
:102F100023685FFA89F61E61CDE7236C042B01D08C
:102F20000120C8E72268136843F400731360F7E7D1
:102F3000020001002DE9F04784B004460D46164614
:102F400099460C9FDDF834800268136843F480636F
:102F500013600368196841F480711960CDF800802E
:102F60003B4600224FF00111FFF7BBFE70B95FFA3C
:102F700085FA236805F0FE051D6143463A4641493E
:102F80002046FFF7ECFE68B1012008E023681B68CB
:102F900013F4807F02D04FF400732364032004B045
:102FA000BDE8F0870023039323685A6903929B6965
:102FB0000393039B424639462046FFF725FF80B91D
:102FC000B9F1010F18D12368F6B21E6142463946A5
:102FD0002046FFF719FF68B3236C042B24D001208F
:102FE000DDE7236C042B01D00120D8E722681368A9
:102FF00043F400731360F7E72368320A1A6142460C
:1030000039462046FFF700FF18B92368F6B21E6163
:10301000DCE7236C042B01D00120C0E72268136891
:1030200043F400731360F7E72268136843F40073F6
:103030001360D4E72268136843F480731360CDF8FB
:1030400000803B4600224FF001112046FFF749FE69
:1030500068B922684AF00103136143463A460949B8
:103060002046FFF77CFE002899D0012097E72368CF
:103070001B6813F4807F02D04FF400732364032095
:103080008DE700BF0200010070B504460D461646EC
:1030900023685B6913F0040F1CD12046FFF708FE7C
:1030A000D0B9B5F1FF3FF3D0FFF7F8FB801BA84282
:1030B00001D8002DECD100232363202284F83D2089
:1030C00084F83E30226C42F02002226484F83C30C6
:1030D000012000E0002070BD0120FCE770B505462E
:1030E0000C4616462B68596911F0400F29D15969D1
:1030F00011F0100F15D1FFF7D1FB801BA04201D8B2
:10310000002CEFD100232B63202285F83D2085F889
:103110003E302A6C42F020022A6485F83C300120BF
:1031200070BD6FF010025A6100232B63202285F8D6
:103130003D2085F83E302A6C2A6485F83C30012019
:10314000EEE70020ECE70000002800F0CC8070B52E
:10315000044690F83D30002B77D0242384F83D308E
:103160002268136823F0010313602268136843F494
:10317000004313602268136823F40043136000F0D7
:10318000E5FE62685A4B9A4264D85A4B98428CBF0B
:1031900000230123002B40F0A8805749A1FB0031F8
:1031A0008B0C25686A6822F03F0242EA91426A600D
:1031B00021680A6A22F03F0266684D4DAE424FD840
:1031C000013313430B622168CA6922F44F4222F093
:1031D000FF026668464B9E424CD8431E7600B3FB06
:1031E000F6F3013340F6FC70034278D0C3F30B03CF
:1031F0001343CB6121680B6823F0C003E269206AA6
:10320000024313430B6021688B6823F4034323F0CC
:10321000FF032269E068024313438B602168CB6897
:1032200023F0FF036269A06902431343CB60226865
:10323000136843F00103136000202064202384F806
:103240003D30206384F83E0070BD80F83C30FEF7CE
:103250006DFD82E7294B98428CBF0023012399E73B
:103260004FF4967505FB03F3254DA5FB03539B090E
:103270000133A6E7A368BBB9451E06EB460CB5FBB8
:10328000FCF50135C5F30B05B5FA85F56D0945BBB0
:10329000C3B9013806EB4603B0FBF3F30133C3F3C4
:1032A0000B0343F40043A3E7451E06EB860C0CEB2F
:1032B0008C0CB5FBFCF50135C5F30B05B5FA85F5AE
:1032C0006D09E4E7013806EB860303EB8303B0FBEB
:1032D000F3F30133C3F30B0343F4404388E70423C0
:1032E00086E7012384E7012070470120ACE700BF97
:1032F000A08601007F841E0083DE1B43FF083D0083
:10330000D34D6210A8B110B50446242380F83D3097
:103310000268136823F001031360FEF73FFD0020ED
:10332000206484F83D00206384F83E0084F83C006B
:1033300010BD0120704700002DE9F04383B0044622
:103340000F46904699460C9EFFF7A8FA054694F85A
:103350003D00C0B2202803D0022003B0BDE8F083B6
:103360000095192301224B492046FFF7BAFC00289B
:1033700040F0898094F83C30012B00F086800123D6
:1033800084F83C3023681A6812F0010F03D11A68E0
:1033900042F001021A602268136823F4006313608C
:1033A000212384F83D30402384F83E3000232364F9
:1033B0000A9B6362BDF82C306385638D2385364B91
:1033C000E362019500964B46424639462046FFF798
:1033D00045FD00285BD1238D002B35D02A46314690
:1033E0002046FFF711FD20BB626A236812781A613C
:1033F000626A531C6362218D013989B22185638D14
:103400009BB2013B9BB263852368586910F0040F9F
:10341000E1D00029DFD052781A61636A0133636218
:10342000238D013B2385638D9BB2013B9BB263855A
:10343000D1E7236C042B01D001208EE722681368AA
:1034400043F400731360F7E72A4631462046FFF73E
:103450001BFE50B1236C042B01D001207DE72268B4
:10346000136843F400731360F7E72268136843F4AA
:1034700000731360202384F83D30002384F83E302D
:1034800084F83C3069E7022067E7022065E7012005
:1034900063E700BF020010000000FFFF2DE9F043CA
:1034A00087B004460F4690469946109EFFF7F6F9FE
:1034B000054694F83D00C0B2202804D002273846C3
:1034C00007B0BDE8F0830095192301228849204602
:1034D000FFF707FC002840F0438194F83C30012BB3
:1034E00000F04081012384F83C3023681A6812F010
:1034F000010F03D11A6842F001021A6022681368B2
:1035000023F400631360222384F83D30402384F8C1
:103510003E30002323640E9B6362BDF83C3063851C
:10352000638D2385734BE362019500964B464246BB
:1035300039462046FFF7FEFC0746002840F014817C
:10354000238D5BB9029323685A6902929A690292A9
:10355000029A1A6842F400721A6075E0012B0AD0D0
:10356000022B1AD00023059323685A6905929B69A0
:103570000593059B68E02268136823F48063136059
:103580000023039323685A6903929A690392039A6A
:103590001A6842F400721A6056E02268136823F435
:1035A000806313602268136843F400631360002390
:1035B000049323685A6904929B690493049B43E033
:1035C0002A4631462046FFF789FD002840F0CE808C
:1035D00023681A69636A1A70636A01336362238D10
:1035E000013B2385638D9BB2013B9BB263852BE03E
:1035F00000953346002240492046FFF772FB002821
:1036000040F0B6802268136843F4007313602368A7
:103610001A69636A1A70626A531C6362238D013BE4
:103620002385638D9BB2013B9BB2638523681B6935
:103630005370636A01336362238D013B2385638D7D
:103640009BB2013B9BB26385238D002B7FD0032B64
:1036500054D8012BB4D0022BCAD000953346002297
:1036600025492046FFF73DFB002840F08380226873
:10367000136823F48063136023681A69636A1A70FD
:10368000636A01336362238D013B2385638D9BB2A3
:10369000013B9BB2638500953346002216492046C4
:1036A000FFF71FFB002867D12268136843F40073FB
:1036B000136023681A69636A1A70626A531C636232
:1036C000238D013B2385638D9BB2013B9BB26385B8
:1036D00023681B695370636A01336362238D013B66
:1036E0002385638D9BB2013B9BB26385ACE700BF32
:1036F000020010000000FFFF040001002A463146CE
:103700002046FFF7EBFC002838D123681A69636A6A
:103710001A70626A531C6362238D013B2385638D9B
:103720009BB2013B9BB263852368596911F0040F7A
:103730008AD01B695370636A01336362238D013B36
:103740002385638D9BB2013B9BB263857CE720237D
:1037500084F83D30002384F83E3084F83C30AEE6F7
:103760000227ACE60227AAE60127A8E60127A6E67B
:103770000127A4E60127A2E60127A0E601279EE68D
:103780002DE9F04385B00446884691461D46FFF773
:1037900085F894F83D30DBB2202B03D0022005B031
:1037A000BDE8F083064600901923012257492046C0
:1037B000FFF797FA002840F0A08094F83C30012BE6
:1037C00000F09D80012384F83C3023681A6812F0D1
:1037D000010F03D11A6842F001021A6022681368CF
:1037E00023F400631360242384F83D30002727640A
:1037F000474BE36240E023681B6813F4807F02D0EC
:103800004FF4007323640320C9E7A02384F83D30FC
:1038100022685369C3F340035269C2F3802294F8CB
:103820003DC05FFA8CFCBCF1A00F09D043B93AB996
:10383000FFF734F8801BA842E7D8002DE8D1E4E771
:10384000202384F83D3023685A6912F0020F31D1E9
:103850001A6842F400721A6023686FF480625A6139
:1038600000961923012229492046FFF73AFA002839
:1038700049D101374F4538D22268136843F4807329
:10388000136000962B4600224FF001112046FFF7EF
:1038900028FA0028AFD1236808F0FE021A61FEF76B
:1038A000FDFF064622685369C3F340035269C2F321
:1038B0008022B4E71A6842F400721A60002303936E
:1038C00023685A6903929B690393039B009619230B
:1038D00001220E492046FFF704FA90B9202384F80C
:1038E0003D30002384F83C3059E7202384F83D30F4
:1038F000002384F83C30012051E702204FE70220EA
:103900004DE701204BE7012049E700BF020010000E
:103910000000FFFF002800F0E08170B582B004468F
:10392000036813F0010F3BD09F4B9B6803F00C031F
:10393000042B2CD09C4B9B6803F00C03082B21D04C
:103940006368B3F5803F4FD0B3F5A02F52D0964BAC
:103950001A6822F480321A601A6822F480221A60EF
:103960006368002B50D0FEF799FF05468E4B1B680D
:1039700013F4003F14D1FEF791FF401B6428F5D9E2
:103980000320B1E1884B5B6813F4800FD8D0864BDD
:103990001B6813F4003F03D06368002B00F09F8185
:1039A000236813F0020F54D07F4B9B6813F00C0F69
:1039B0003ED07D4B9B6803F00C03082B33D0E368AB
:1039C000002B68D0794B01221A60FEF767FF05468D
:1039D000754B1B6813F0020F54D1FEF75FFF401BBD
:1039E0000228F5D903207FE16F4A136843F480333E
:1039F0001360B5E76C4B1A6842F480221A601A68AB
:103A000042F480321A60ABE7FEF748FF0546664B8A
:103A10001B6813F4003FC3D0FEF740FF401B64282F
:103A2000F5D9032060E1604B5B6813F4800FC6D1C9
:103A30005D4B1B6813F0020F03D0E368012B40F0CD
:103A40005081594A136823F0F803216943EAC103FE
:103A50001360236813F0080F42D063696BB3534BB4
:103A60000122C3F8802EFEF719FF05464E4B5B6F0F
:103A700013F0020F34D1FEF711FF401B0228F5D9D5
:103A8000032031E1484A136823F0F803216943EA2F
:103A9000C1031360DDE7454B00221A60FEF7FEFE0E
:103AA0000546414B1B6813F0020FD2D0FEF7F6FE1D
:103AB000401B0228F5D9032016E13C4B0022C3F835
:103AC000802EFEF7EBFE0546374B5B6F13F0020FBF
:103AD00006D0FEF7E3FE401B0228F5D9032003E1E0
:103AE000236813F0040F77D02F4B1B6C13F0805F0B
:103AF00033D1002301932C4B1A6C42F080521A648C
:103B00001B6C03F080530193019B0125284B1B681C
:103B100013F4807F23D0A368012B34D0052B38D039
:103B2000214B1A6F22F001021A671A6F22F0040269
:103B30001A67A368002B3DD0FEF7B0FE06461A4B6D
:103B40001B6F13F0020F46D1FEF7A8FE801B41F257
:103B500088339842F3D90320C6E00025D6E7144AFB
:103B6000136843F480731360FEF798FE0646104B0B
:103B70001B6813F4807FCED1FEF790FE801B0228D5
:103B8000F5D90320B0E0084A136F43F0010313672F
:103B9000CFE7054B1A6F42F004021A671A6F42F022
:103BA00001021A67C5E700BF003802400000474223
:103BB00000700040FEF772FE0646524B1B6F13F07A
:103BC000020F08D0FEF76AFE801B41F2883398424C
:103BD000F3D9032088E0EDB9A369002B00F08380BE
:103BE000484A926802F00C02082A51D0022B17D0E2
:103BF000454B00221A66FEF751FE0446414B1B68F6
:103C000013F0007F42D0FEF749FE001B0228F5D9D1
:103C1000032069E03B4A136C23F080531364DBE715
:103C2000394B00221A66FEF739FE0546354B1B68F4
:103C300013F0007F06D0FEF731FE401B0228F5D9B5
:103C4000032051E0E369226A1343626A43EA821364
:103C5000A26A5208013A43EA0243E26A43EA026373
:103C6000284A5360284B01221A66FEF717FE0446C5
:103C7000244B1B6813F0007F06D1FEF70FFE001BDC
:103C80000228F5D903202FE000202DE000202BE0B2
:103C9000012B2BD01B4B5B6803F48001E26991423E
:103CA00026D103F03F02216A8A4223D1616A47F696
:103CB000C0721A40B2EB811F1ED103F44031A26AD8
:103CC0005208013AB1EB024F18D103F07063E26A77
:103CD000B3EB026F14D1002006E0012070470120F1
:103CE00002E0012000E0002002B070BD0120FBE7EF
:103CF0000120F9E70120F7E70120F5E70120F3E7CC
:103D00000120F1E7003802400000474208B5314B7E
:103D10009B6803F00C03042B57D0082B57D12D4B75
:103D20005A6802F03F025B6813F4800F2AD0294BD7
:103D30005968C1F3881C4FEA4C11B1EB0C006EEBD3
:103D40000E0E4FEA8E1343EA90638101091A63EB6A
:103D50000E03DB0043EA5173C90011EB0C0C43F175
:103D60000003590200234FEA4C2041EADC51FCF7E2
:103D7000D7FE184B5B68C3F3014301335B00B0FB14
:103D8000F3F025E0134B5968C1F3881C4FEA4C113E
:103D9000B1EB0C006EEB0E0E4FEA8E1343EA90630C
:103DA0008101091A63EB0E03DB0043EA5173C9007A
:103DB00011EB0C0C43F10003990200234FEA8C2015
:103DC00041EA9C51FCF7ACFED3E7034800E003480E
:103DD00008BD00BF0038024000127A000024F40041
:103DE000002800F09B8070B50D4604464F4B1B68C1
:103DF00003F007038B4208D2CBB24C4A137013680E
:103E000003F007038B4240F08B80236813F0020F0E
:103E100017D013F0040F04D0454A936843F4E053DD
:103E20009360236813F0080F04D0414A936843F469
:103E3000604393603E4A936823F0F003A1680B430C
:103E40009360236813F0010F32D06368012B21D0F7
:103E50009A1E012A25D9364A126812F0020F61D043
:103E600033498A6822F0030213438B60FEF716FD84
:103E700006462F4B9B6803F00C036268B3EB820F7E
:103E800016D0FEF70BFD801B41F288339842F0D923
:103E9000032042E0264A126812F4003FE0D10120DC
:103EA0003BE0234A126812F0007FD9D1012034E0B0
:103EB0001E4B1B6803F00703AB4207D9EAB21B4B4A
:103EC0001A701B6803F00703AB422DD1236813F06F
:103ED000040F06D0164A936823F4E053E1680B43BD
:103EE0009360236813F0080F07D0114A936823F4F6
:103EF0006043216943EAC1039360FFF707FF0C4B5E
:103F00009B68C3F303130B4AD35CD8400A4B186079
:103F10000A4B1868FEF776FC002070BD0120704740
:103F20000120FAE70120F8E70120F6E7003C024013
:103F300000380240ECAB0008000000200800002020
:103F4000014B1868704700BF0000002008B5FFF75C
:103F5000F7FF044B9B68C3F38223034AD35CD8402A
:103F600008BD00BF00380240FCAB000808B5FFF7F1
:103F7000E7FF044B9B68C3F34233034AD35CD8404A
:103F800008BD00BF00380240FCAB00082DE9F04737
:103F900082B00546884617461E46FEF77FFC0A9B00
:103FA0001B1A03EB0609FEF779FC82462B4B1B68B4
:103FB000C3F3CB3309FB03F301932B689C6838EA06
:103FC00004030CBF4FF0010C4FF0000CBC4540D077
:103FD000B6F1FF3FF1D0FEF761FCA0EB0A004845C7
:103FE0000AD2B9F1000F07D0019A02B14A46019BEB
:103FF000013B01939146E0E72A68536823F0E00310
:1040000053606B68B3F5827F0BD0AB6AB3F5005F8A
:1040100014D0012385F85130002385F85030032057
:1040200018E0AB68B3F5004F02D0B3F5806FECD168
:104030002A68136823F040031360E6E72A681368D0
:1040400023F4005313602A68136843F40053136089
:10405000DFE7002002B0BDE8F08700BF00000020CD
:1040600010B584B00446164B1868164BA3FB0030FD
:10407000400D4FF47A7303FB00F003906368B3F5CF
:10408000827F0BD0039BBBB1039B013B039323684F
:104090009B6813F0800FF5D100200EE000920B46D4
:1040A000002280212046FFF771FF30B1636D43F09D
:1040B00020036365032000E0002004B010BD00BFB2
:1040C00000000020819F5E1600285AD010B50446DB
:1040D000436A33B94368B3F5827F05D00023C361D7
:1040E00002E00023036143610023A36294F851308E
:1040F000002B40D0022384F851302268136823F04B
:1041000040031360636803F48273A26802F40442FC
:104110001343E26802F400621343226902F00202D0
:104120001343626902F001021343A26902F40072B0
:104130001343E26902F038021343226A02F080025C
:104140001343A26A02F40052216813430B60638B8D
:1041500003F00403626A02F01002216813434B600B
:104160002268D36923F40063D361002060650123D2
:1041700084F8513010BD84F850302046FEF7B0F975
:10418000B8E7012070472DE9F04383B01D4690F851
:104190005030012B00F0D18004468846914601231F
:1041A00080F85030FEF77AFB074694F85160F6B27B
:1041B000012E40F0AF80B8F1000F00F0AC80B9F1F3
:1041C000000F00F0A880032384F8513000236365BA
:1041D000C4F83080A4F83490A4F83690A363A38781
:1041E000E38763642364A368B3F5004F1ED023689C
:1041F0001A6812F0400F03D11A6842F040021A60A8
:10420000E368B3F5006F1CD0636813B1B9F1010F17
:1042100052D1226B236812781A73236B0133236304
:10422000E38E9BB2013B9BB2E38645E022681368B4
:1042300023F0400313602268136843F48043136043
:10424000D5E7636813B1B9F1010F16D1226B23686A
:104250001288DA60236B02332363E38E9BB2013B47
:104260009BB2E38609E0FEF719FBC01BA84202D30C
:10427000B5F1FF3F59D1002D59D0E38E9BB2002BF1
:1042800033D023689A6812F0020FECD0226B1288A8
:10429000DA60236B02332363E38E9BB2013B9BB254
:1042A000E386EAE7FEF7FAFAC01BA84202D3B5F1AB
:1042B000FF3F3ED1002D3ED0E38E9BB2ABB12368D1
:1042C0009A6812F0020FEDD0226B12781A73236BEA
:1042D00001332363B4F836C01FFA8CFC0CF1FF3CA9
:1042E0001FFA8CFCA4F836C0E6E73A462946204679
:1042F000FFF7B6FE08B120236365A36833B90193C5
:104300002368DA6801929B680193019B636D13B97E
:10431000002600E00226012384F85130002384F8AF
:104320005030304603B0BDE8F0830326F3E70326A0
:10433000F1E70326EFE70326EDE70226F1E72DE993
:10434000F04383B01F460A9D90F85030012B00F0D7
:104350001081044688469146012380F85030FEF7CC
:104360009DFA064694F85130DBB26268012B0AD000
:10437000B2F5827F40F0E380A268002A40F0E98035
:10438000042B40F0E880B8F1000F00F0E680B9F1AE
:10439000000F00F0E480002F00F0E38094F851302B
:1043A000DBB2042B02D0052384F85130002363656F
:1043B000C4F83890E787A787C4F83080E786A786D7
:1043C0002364636423681A6812F0400F03D11A68EB
:1043D00042F040021A60E368B3F5006F11D06368E1
:1043E0000BB1012F0BD1226B236812781A73236B48
:1043F00001332363E38E9BB2013B9BB2E38601272B
:104400006BE063680BB1012F0BD1226B236812881C
:10441000DA60236B02332363E38E9BB2013B9BB2D2
:10442000E38601271CE023689A6812F0010F0ED082
:10443000E28F92B25AB1DA68A36B1A80A36B02338F
:10444000A363E38F9BB2013B9BB2E3870127FEF797
:1044500025FA801BA84203D3B5F1FF3F40F08380CB
:10446000E38E9BB21BB9E38F9BB2002B53D0236822
:104470009A6812F0020FD6D0E28E92B2002AD2D001
:10448000002FD0D0226B1288DA60236B02332363B3
:10449000E38E9BB2013B9BB2E3860027C3E7236810
:1044A0009A6812F0010F0ED0E28F92B25AB1DA6818
:1044B000A36B1A70A36B0133A363E38F9BB2013B21
:1044C0009BB2E3870127FEF7E9F9831BAB4202D3D6
:1044D000B5F1FF3F49D1002D49D0E38E9BB213B90E
:1044E000E38F9BB2BBB123689A6812F0020FD6D05B
:1044F000E28E92B2002AD2D0002FD0D0226B127856
:104500001A73236B01332363E38E9BB2013B9BB28F
:10451000E3860027C3E7324629462046FFF7A0FD81
:1045200048B9A36863B901932368DA6801929B686C
:104530000193019B04E020236365012000E0022039
:10454000012384F85130002384F8503003B0BDE8D3
:10455000F0830220F4E70220F2E70120F0E70120D7
:10456000EEE70120ECE70320EAE70320E8E7032079
:10457000E6E70220EAE7000038B50446026813695E
:1045800023F44053C1680B431361836802691343EA
:1045900042691343C2691A430168CB6823F4164386
:1045A00023F00C031343CB600268536923F4407378
:1045B00081690B4353610368314A934206D002F587
:1045C0008062934202D0FFF7C1FC01E0FFF7CEFC0E
:1045D000E369B3F5004F29D00021031849411B18A6
:1045E00041F10001C90041EA5371DB00181863680A
:1045F0004FEA83024FEA937341F10001FCF790FA0E
:10460000204DA5FB00325109642303FB11031B015C
:104610003233A5FB03235B0903F0F00202EB011226
:1046200003F00F03216813448B6038BD0023021888
:1046300043EB0301121841F10001C90041EA527134
:10464000D200101841F10001626892185B41FCF73A
:1046500067FA0C4DA5FB00325109642303FB1103DB
:10466000DB003233A5FB03235B095A0002F4F87226
:1046700002EB011203F00703216813448B60D4E7B7
:10468000001001401F85EB512DE9F84305460F4608
:1046900016469946DDF820802C68246837EA040322
:1046A0000CBF4FF0010C4FF0000CB4452DD1B8F108
:1046B000FF3FF1D0B8F1000F05D0FEF7EFF8A0EB07
:1046C00009004045E8D92A6802F10C0353E8003F8D
:1046D00023F4D0730C3242E800310029F3D12A6868
:1046E00002F1140353E8003F23F00103143242E8BF
:1046F00000310029F3D1202385F83D3085F83E3084
:10470000002385F83C30032000E00020BDE8F8835A
:1047100058B310B5044690F83D300BB3242384F809
:104720003D302268D36823F40053D3602046FFF75E
:1047300023FF2268136923F49043136122685369AD
:1047400023F02A0353612268D36843F40053D360F3
:1047500000202064202384F83D3084F83E3010BDD2
:1047600080F83C30FDF7AAFFD8E7012070472DE91B
:10477000F04182B01E4690F83D30DBB2202B54D180
:1047800004460D469046002953D0002A53D090F895
:104790003C30012B51D0012380F83C3000230364CE
:1047A000212380F83D30FEF779F80746A4F82480ED
:1047B000A4F82680A368B3F5805F05D04FF0000809
:1047C000002384F83C3012E0236913B14FF0000855
:1047D000F6E7A8460025F3E738F8023B2268C3F362
:1047E00008035360E28C92B2013A92B2E284E38C05
:1047F0009BB273B100963B46002280212046FFF712
:1048000043FFE0B9002DE7D015F8012B23685A606B
:10481000E8E700963B46002240212046FFF734FFA0
:1048200078B9202384F83D3000E0022002B0BDE8D2
:10483000F0810120FAE70120F8E70220F6E70320E3
:10484000F4E70320F2E72DE9F04182B01E4690F82C
:104850003E30DBB2202B5CD104460D469046002949
:104860005BD0002A5BD090F83C30012B59D001235B
:1048700080F83C3000230364222280F83E2003634A
:10488000FEF70CF80746A4F82C80A4F82E80A36845
:10489000B3F5805F05D04FF00008002384F83C306A
:1048A00017E0236913B14FF00008F6E7A84600258A
:1048B000F3E723685B68C3F3080328F8023B03E0CF
:1048C00023685B682B700135E28D92B2013A92B297
:1048D000E285E38D9BB2BBB100963B4600222021CE
:1048E0002046FFF7D1FEF0B9002DE2D0A368B3F562
:1048F000805FE5D013B92369002BE1D023685B68A2
:1049000003F07F032B70DEE7202384F83E30002085
:1049100000E0022002B0BDE8F0810120FAE70120AA
:10492000F8E70220F6E70320F4E70000014B1868DF
:10493000704700BF0C00002070B50D4E0D4D761B6A
:10494000B61006D0002455F8043B01349847A6421F
:10495000F9D1094E094D761B06F0C2F8B61006D003
:10496000002455F8043B01349847A642F9D170BDA4
:1049700010B0000810B0000818B0000810B000080F
:10498000830730B548D0541E002A3FD0CAB2034630
:1049900001E0013C3AD303F8012B9D07F9D1032C28
:1049A0002DD9CDB245EA05250F2C45EA054536D966
:1049B000A4F1100222F00F0C03F1200EE6444FEA9E
:1049C000121C03F1100242E9045542E9025510326B
:1049D0007245F8D10CF1010214F00C0F03EB021236
:1049E00004F00F0C13D0ACF1040323F003030433E1
:1049F000134442F8045B9342FBD10CF003042CB146
:104A0000CAB21C4403F8012B9C42FBD130BD644662
:104A10001346002CF4D1F9E703461446BFE71A46C3
:104A2000A446E0E70FB400B5074983B004AB0868BB
:104A300053F8042B8168019300F036F903B05DF858
:104A400004EB04B0704700BF0C00002070B50546B1
:104A500088B008460C46FCF7F3F9224EAA6B059085
:104A600001214318CDE9066104A8022104940393AF
:104A7000AC680190029122B3636E13F0010FB4F998
:104A80000C309AB201D1980525D5910406D4626EF6
:104A900043F4005322F40052A3816266284601AA1F
:104AA000214603F0DDF9636E002814BF4FF0FF3597
:104AB0000A25DA0702D4A3899B0506D5284608B043
:104AC00070BD284602F0CEFFD6E7A06D03F06AFB6A
:104AD000284608B070BDA06D03F062FBB4F90C303D
:104AE0009AB2D2E708AC0008024B01461868FFF7FB
:104AF000ADBF00BF0C0000202DE9F043694CD4F895
:104B0000008083B004460E4617461D46B8F1000FDC
:104B100003D0D8F83830002B77D0022F05D0012FE2
:104B200000F2AC80002DC0F2A980636EDA0752D586
:104B30002146404602F062FF216B41B104F140037F
:104B4000994202D0404603F085F800232363B4F96C
:104B50000CC000231CF0800FA361636064D12CF4AF
:104B60004A6C2CF0030C022FA4F80CC06AD001ABE5
:104B70006A462146404603F087FBA3891843A0817B
:104B8000002D2FD0002E2ED0D8F83830002B38D062
:104B9000009B2660AB42B4F90C301CBF43F40063A9
:104BA000A381012F04BF43F00103A3819AB213F044
:104BB0000803C4E904652CD0D1075DD56D42A56119
:104BC000656E002315F00105A36027D00025284657
:104BD00003B0BDE8F083A3899B05A9D4A06D03F0C1
:104BE000DFFAA5E7009D284603F07EFB0646002875
:104BF00047D0A38943F08003A381D8F83830002B35
:104C0000C6D1404602F02EFFC2E7404602F02AFF1E
:104C100083E7A360656E15F00105D7D1930524D510
:104C2000284603B0BDE8F0832169404603F012F83E
:104C3000B4F90CC02CF44A6C2CF0030C022FA4F82D
:104C40000CC094D10025002204F14303A26001228C
:104C5000C4E904322360636E4CF0020CD807A4F858
:104C60000CC0DDD41CF4007FDAD1A06D03F09AFAF9
:104C7000284603B0BDE8F083A560CBE74FF0FF35D1
:104C8000CEE7DDF80090A94504D0484603F02CFBA0
:104C9000064620B9B4F90CC04FF0FF35D3E74D46B6
:104CA000A7E700BF0C0000202DE9F04FD5B01C464F
:104CB000079191460546099003F06AFA0268179237
:104CC00010460E94FCF7BCF816901DB1AB6B002B90
:104CD00000F02A82079A536EDD0740F13881B2F95D
:104CE0000C2091B28F0409D4079B42F400529A81A0
:104CF00091B21A465B6E23F4005353660E0740F1DF
:104D0000CB80079B1B69002B00F0C68001F01A03C3
:104D10000A2B00F0CF8000242BAB4D46CDE929446F
:104D2000CDE91944CDE91B44129428939846189470
:104D300000230B940024CDE914342B78002B00F0D1
:104D40009D81AA4604E01AF8013F002B00F0C780BD
:104D5000252BF8D1BAEB050640F0C5809AF8003053
:104D6000002B00F08B8100234FF0FF329AF8016096
:104D70008DF883300A930AF1010A08921F462B240A
:104D80004FF020090AF1010AA6F120035A2B00F284
:104D9000ED80DFE813F0EB02EB00EB00E602EB0046
:104DA000EB00EB006A00EB00EB005C028002EB0022
:104DB00067028A02EB0085025B005B005B005B0020
:104DC0005B005B005B005B005B00EB00EB00EB005B
:104DD000EB00EB00EB00EB007A01EB00F801D201F5
:104DE0007A017A017A01EB00EB00EB00EB00E102C3
:104DF000EB00EB002D02EB00EB00EB000202EB00FE
:104E0000A402EB00EB008307EB00EB00EB00EB00F0
:104E1000EB00EB00EB00EB007A01EB00F801D401B2
:104E20007A017A017A01C702D401CD01EB00D402E4
:104E3000EB006C022F02B502CD01EB0002027E00F6
:104E40008007EB00EB006107EB007E00A6F130036A
:104E500000221AF8016B02EB820203EB4202A6F178
:104E60003003092BF5D90A928EE7DDF824B05846B5
:104E700003F08EF943681B931846FBF7E1FF1C9083
:104E80000646584603F084F983681993002E40F0D3
:104E9000CD869AF8006075E7079D0998294601F0CC
:104EA000ADFC002841F01C83A98901F01A030A2BEC
:104EB0007FF431AF079AB2F90E30002BFFF62BAF1B
:104EC000536ED80702D4890541F13B8107990998AF
:104ED00023464A4655B0BDE8F04F01F04FBCBAEB4F
:104EE000050600F0CB802A9B33442A93299B01338B
:104EF000072BC8E90056299305DC08F108080B9B2D
:104F000033440B932AE70799099828AA04F0C0FBB9
:104F100080B90DF1AC08F2E70799099828AA04F0C6
:104F2000B7FB002800F09B800D9B1BB10998194628
:104F300002F090FE079A536ED90740F1EA809389F8
:104F40005B0601F1D9820B9855B0BDE8F08F079B45
:104F5000B3F90C20900591B23FF5C4AE1D46986D93
:104F600003F01EF9B5F90C2091B2BBE6002E00F05B
:104F7000858000228DF8EC608DF883200123CDE937
:104F80000C32069308920F92139210923BAD17F0D9
:104F9000020302D006990231069117F0840B07D163
:104FA0000A990698A1EB0009B9F1000F00F370838C
:104FB0002A9C8AB1299A0DF1830101320134C8F883
:104FC0000010072A4FF001012A942992C8F8041012
:104FD00000F3B68308F1080883B1299B21AA0133A5
:104FE0000234C8F80020072B4FF002022A942993BC
:104FF000C8F8042000F3B28308F10808BBF1800F61
:1050000000F06982089B0C9AA3EB020BBBF1000F26
:1050100000F3AA82FB0500F100820C9BC8F8043063
:105020001C44299BC8F800500133072B2A9429936C
:1050300000F3228308F10808780705D50A9B069A31
:105040009D1A002D00F39683DDE90A2306998A4212
:10505000ACBF9B185B180B93002C7FF45DAF002353
:1050600029930D9B1BB10D99099802F0F3FD0DF1E9
:10507000AC0855462B78002B7FF463AE2A9B002B9F
:1050800041F0D3810023299354E70E9B073323F08B
:105090000702F2E80234CDE91434DDE9143424F0D7
:1050A00000440E92994618462146B54B4FF0FF3208
:1050B000FCF7BAFA002840F0EF84B14B484621468D
:1050C0004FF0FF32FCF792FA002840F0E584DDE96A
:1050D000140100220023FCF77FFA002840F06787C4
:1050E0009DF88320A74DA84B27F080070321472E6A
:1050F000C8BF1D4600230D9306910C9108930F9392
:1051000013931093002A3FF442AF069B013306939A
:105110003DE7079B9B899A053FF512AF079CA06D61
:1051200003F040F8A3890BE7099802F09BFCD1E556
:105130009AF8006047F0200724E647F01007BA0607
:105140000E9B40F13B84073323F007031A465B684C
:1051500052F8084B0E929946002BC0F24C84089BE3
:10516000013300F0D88254EA090327F0800B40F0A5
:10517000D382089B002B40F0D4825F460023089323
:105180000C9354AD1DE10E9B002253F8041B8DF8C7
:1051900083208DF8EC100E93F0E60E9C089B54F8DB
:1051A000045B4FF000098DF88390002D00F093858B
:1051B0005A1C00F051861A4649462846FBF7B0FEB5
:1051C0000D90002801F00E810D9BCDF820905B1B07
:1051D0000C930E9423EAE3739DF883200693CDF895
:1051E0003490CDF83C90CDF84C90CDF8409089E7C4
:1051F00047F0100717F0200900F0D2830E9B073309
:1052000023F00703D3F8049053F8084B0E9327F4C8
:10521000806B002300228DF88320089A511C00F037
:10522000B88054EA09012BF0800740F0B180002AD1
:1052300040F0F685002BA1D11BF001030C9300F088
:10524000148430238DF84F310DF24F15B9E00E9BC9
:1052500053F8042B0A92002A80F2DA830A9A0E93FA
:1052600052420A929AF8006047F004078AE5BD06A8
:1052700000F1D184FC0600F1D885780600F1A586FE
:10528000B90540F1D2850E9B0B9953F8042B0E9370
:1052900011705546EEE69AF800608DF8834071E58E
:1052A0009AF8006047F080076CE5524612F8016BEF
:1052B0002A2E01F03F82A6F13003092B924698BFB7
:1052C000002201F2BC801AF8016B02EB820203EBB0
:1052D0004202A6F13003092BF5D9089254E547F0B4
:1052E000100B1BF0200900F076830E9B073323F090
:1052F0000703D3F8049053F8084B0E93012389E772
:105300000E9B53F8044B0E93302378268DF884308F
:105310001E4B189347F0020B8DF885604FF0000983
:10532000022377E79AF80060682E03BF9AF80160BD
:1053300047F400770AF1010A47F0400722E59AF89E
:1053400000606C2E03BF9AF8016047F020070AF155
:10535000010A47F0100715E59AF8006047F00807C2
:1053600010E59AF8006047F001070BE59DF88330DF
:10537000002B7FF48EAD9AF800608DF8839001E5E4
:10538000FFFFEF7F0CAC000810AC00081CAC00085D
:10539000BB46012B00F0C081022B54AD20D1189ADE
:1053A00004F00F032409D35C05F8013D44EA0974B5
:1053B0004FEA191954EA0903F2D154AB5B1B5F465B
:1053C0000C9308990C989DF8832081424FF00003BC
:1053D000B8BF01460D9306910F931393109391E676
:1053E00004F00703E40844EA49744FEAD90930336A
:1053F00054EA09012A4605F8013DF1D11BF0010FDD
:10540000DBD0302BD9D03023023A05F8013C54AB25
:105410009B1A5F460C931546D3E7652E40F3E68052
:10542000DDE9140100220023FCF7CCF8002800F08D
:10543000DC81299BBF4AC8F80020013301340122D6
:10544000072B2A942993C8F8042000F3CC8408F190
:105450000808229B129A934280F2D682169B179AD2
:105460001C44C8E90023299B2A940133072B299364
:1054700000F3248408F10808129B5D1E002D7FF7BD
:10548000DBAD102D299BDFF8B09240F3BD84494677
:105490002246B946DDF824B0079C10260F4605E0E9
:1054A00008F10808103D102D40F3AA840133103292
:1054B000072BC8E90076CDE92932F1DD28AA21467B
:1054C000584604F0E5F800287FF42EADDDE92932D6
:1054D0000DF1AC08E6E70A9B069AA3EB020BBBF1C1
:1054E000000F7FF78FADBBF1100F299ADFF84892BC
:1054F0002CDD1D9621464E46079CDDF82490102396
:1055000006E0ABF1100BBBF1100F08F108081ADD33
:1055100001321031072AC8E90063CDE92921F0DD05
:1055200028AA214648460DF1AC0804F0B1F800283D
:105530007FF4FAACABF1100BBBF1100FDDE92921C0
:105540004FF01003E4DCB1461D9E0C4601325C4472
:10555000072ACDE92924C8F80090C8F804B000F360
:10556000A08308F108084DE5BBF1100F299ADFF878
:10557000C8912DDD41462046A8464C46079DDDF8E2
:105580002490102306E0ABF1100BBBF1100F01F1DA
:10559000080119DD01321030072AC1E90043CDE9C5
:1055A0002920F0DD28AA2946484604F071F8002891
:1055B0007FF4BAACABF1100BBBF1100FDDE9292081
:1055C0002BA94FF01003E5DC4546A146884604466A
:1055D00001325C44072ACDE92924C8F80090C8F8B4
:1055E00004B000F3D08108F1080813E5129B012BE9
:1055F00040F38081299EC8F8005001360134012310
:10560000072E2A942996C8F8043000F37C8308F109
:105610000808169B179A01361C44072EC8E9002378
:10562000CDE9296400F37C8308F10808DDE9140161
:1056300000220023FBF7C6FF002840F07881129B70
:105640000136013B01351C44072EC8F8005029964D
:10565000C8F804302A9400F35D8108F108081A9B09
:10566000C8F8043001361C44072E24ABCDE9296468
:10567000C8F800307FF7DEAC0799099828AA04F033
:1056800007F800287FF450AC2A9C0DF1AC08D3E455
:10569000B9F1100FDDE929212BDDCDE91D3B1F9666
:1056A000DDF824B04E461024A946079D04E0103EC4
:1056B000102E08F1080817DD0132204B1031072A9F
:1056C000C8E90034CDE92921F1DD28AA2946584648
:1056D0000DF1AC0803F0DCFF00287FF425AC103E90
:1056E000102EDDE92921E7DCDDE91D3B4D46B14601
:1056F0001F9EC8F80490013209EB0104072A0F49E4
:10570000C8F80010CDE9292400F351839DF88320C7
:1057100008F108084DE4BB460A2C79F1000380F03B
:105720000C83303401238DF84F415F460C930DF20A
:105730004F1546E64CAC000860AC000850AC0008C1
:10574000079909981D9328AA03F0A2FF00287FF467
:10575000EBAB2A9C1D9B0DF1AC083DE40799099821
:1057600028AA03F095FF00287FF4DEAB2A9C0DF1F8
:10577000AC0843E4102D299B21DD099FDDF81C9026
:10578000102604E0103D102D08F1080817DD013344
:10579000BB4A1034072BC8E90026CDE92934F1DDD6
:1057A00028AA494638460DF1AC0803F071FF0028DD
:1057B0007FF4BAAB103D102DDDE92934E7DC01336D
:1057C000AF4AC8F804502C44072BCDE92934C8F857
:1057D00000207FF739AC0799099828AA03F058FFF1
:1057E00000287FF4A1AB2A9C2EE42299002940F3E3
:1057F0001481DDF84090129B9945A8BF9946B9F1F4
:10580000000F0BDD299B01334C44072BC8E90059DD
:105810002A94299300F39A8508F10808109EB9F19B
:10582000000FA8BFA6EB0906002E00F34683DDF8A3
:1058300040B07905AB4400F1CE84229B129A93428A
:1058400002DBFA0740F1B883169A17991444C8E9A5
:105850000012299A2A940132072A299200F383859B
:1058600008F10808129AAE18A6EB0B06D51AAE423C
:10587000A8BF2E46002E0DDD299BC8F800B00133CD
:105880003444072BC8F804602A94299300F3F18567
:1058900008F10808002EA8BFAD1B002D7FF7CCAB88
:1058A000102D299BDFF8DC9140F3AE824946224659
:1058B000B946DDF824B0079C10260F4605E008F134
:1058C0000808103D102D40F39B8201331032072B46
:1058D000C8E90076CDE92932F1DD28AA21465846EB
:1058E00003F0D6FE00287FF41FABDDE929320DF16D
:1058F000AC08E6E7FE073FF57DAE299EC8F80050EC
:10590000013601340123072E2A942996C8F8043061
:105910007FF7A3AE0799099828AA03F0B9FE0028DB
:105920007FF402ABDDE929640DF1AC0897E6129B28
:105930005D1E002D7FF793AE102DDFF8489140F3E8
:105940007F8222460897099C079F4FF0100B05E0C5
:1059500008F10808103D102D40F370820136103216
:10596000072EC8E9009BCDE92962F1DD28AA394656
:10597000204603F08DFE00287FF4D6AADDE92962D7
:105980000DF1AC08E6E70799099828AA03F080FE14
:1059900000287FF4C9AA2A9C0DF1AC08FFF73ABB96
:1059A00017F0100372D117F0400200F0BD820E9A7A
:1059B00052F8044B0E929946A4B228E453F8044BD3
:1059C0000E93FB0656D47D0651D544F3C0394B46A1
:1059D00024B2FFF7C1BB1BF0100340F036811BF06F
:1059E000400200F092820E9A52F8044B0E929946B1
:1059F000A4B201230EE42D2364428DF8833069EBB9
:105A00004909BB46012308E4F8077FF515AB25E5F6
:105A10009AF800600E93FFF7B5B9299B1A4AC8F8A7
:105A20000020013301340122072B2A942993C8F85E
:105A3000042000F3708408F10808002940F01E8259
:105A4000129A07F0010313433FF4F6AA169B179925
:105A5000E218C8E90013299B2A920133072B2993E6
:105A600000F3618308F1080819E254ADA9E4B80510
:105A700000F1B4824FEAE4794B46FFF76DBB00BFFB
:105A800050AC000860AC00084CAC00080E9B53F80A
:105A9000044B0E93FFF7BBBBDDE9140102460B4636
:105AA000FBF7C2FD002840F0A085612E00F0508574
:105AB000412E00F09982089B013326F020030693C3
:105AC00000F08F85472B00F07985DDE9141247F44B
:105AD00080730F931346002BC0F2ED850C930023C7
:105AE0001D938B460D93069B462B00F04A84452B55
:105AF00000F04F850899019126A9049123A90391EB
:105B000022A9029102210C9B099800915A4600F0AB
